:020000040800F2
:100000000050002075490008711700087317000898
:10001000751700087717000879170008000000001E
:100020000000000000000000000000007B17000836
:100030007D170008000000007F17000881170008E6
:10004000BD490008BD490008BD490008BD49000878
:10005000BD490008BD490008BD490008BD49000868
:10006000BD4900088917000893170008BD4900081A
:10007000BD490008BD490008BD490008BD49000848
:10008000BD490008BD490008BD490008BD49000838
:10009000BD490008BD490008BD490008BD49000828
:1000A000BD490008BD490008BD490008BD49000818
:1000B0009D170008AD170008BD170008BD490008CE
:1000C000BD490008BD490008BD490008BD490008F8
:1000D000BD490008CD170008BD490008DD1700081C
:1000E000BD490008ED170008BD49000800000000E8
:1000F0000000000000000000000000000000000000
:0C01000000000000000000005FF808F1A3
:1001100010F8012B11F8013B012A28BF9A42F7D0B1
:10012000D01A7047034613F8012B002AFBD1181A86
:100130000138704781F0004102E000BF83F00043C6
:1001400030B54FEA41044FEA430594EA050F08BF72
:1001500090EA020F1FBF54EA000C55EA020C7FEA36
:10016000645C7FEA655C00F0E2804FEA5454D4EBB3
:100170005555B8BF6D420CDD2C4480EA020281EA7D
:10018000030382EA000083EA010180EA020281EAB5
:100190000303362D88BF30BD11F0004F4FEA013107
:1001A0004FF4801C4CEA113102D0404261EB410116
:1001B00013F0004F4FEA03334CEA133302D052429C
:1001C00063EB430394EA050F00F0A780A4F1010458
:1001D000D5F1200E0DDB02FA0EFC22FA05F2801892
:1001E00041F1000103FA0EF2801843FA05F3594178
:1001F0000EE0A5F120050EF1200E012A03FA0EFCF7
:1002000028BF4CF0020C43FA05F3C01851EBE37120
:1002100001F0004507D54FF0000EDCF1000C7EEB3D
:1002200000006EEB0101B1F5801F1BD3B1F5001F7B
:100230000CD349085FEA30004FEA3C0C04F101049A
:100240004FEA445212F5800F80F09A80BCF1004FC3
:1002500008BF5FEA500C50F1000041EB045141EA45
:10026000050130BD5FEA4C0C404141EB0101013C0E
:1002700028BFB1F5801FE9D291F0000F04BF0146FD
:100280000020B1FA81F308BF2033A3F10B03B3F1CF
:1002900020020CDA0C3208DD02F1140CC2F10C025F
:1002A00001FA0CF021FA02F10CE002F11402D8BFBD
:1002B000C2F1200C01FA02F120FA0CFCDCBF41EA89
:1002C0000C019040E41AA2BF01EB0451294330BD58
:1002D0006FEA04041F3C1CDA0C340EDC04F1140435
:1002E000C4F1200220FA04F001FA02F340EA03000C
:1002F00021FA04F345EA030130BDC4F10C04C4F152
:10030000200220FA02F001FA04F340EA0300294631
:1003100030BD21FA04F0294630BD94F0000F83F47B
:10032000801306BF81F480110134013D4EE77FEA5E
:10033000645C18BF7FEA655C29D094EA050F08BFAA
:1003400090EA020F05D054EA000C04BF194610468B
:1003500030BD91EA030F1EBF0021002030BD5FEACF
:10036000545C05D14000494128BF41F0004130BDF7
:1003700014F580043CBF01F5801130BD01F000454B
:1003800045F0FE4141F470014FF0000030BD7FEABE
:10039000645C1ABF194610467FEA655C1CBF0B46B9
:1003A000024650EA013406BF52EA033591EA030FD0
:1003B00041F4002130BD00BF90F0000F04BF0021C8
:1003C000704730B54FF4806404F132044FF00005FB
:1003D0004FF0000150E700BF90F0000F04BF002174
:1003E000704730B54FF4806404F1320410F00045DA
:1003F00048BF40424FF000013EE700BF42004FEAD5
:10040000E2014FEA31014FEA02701FBF12F07F4351
:1004100093F07F4F81F06051704732F07F4208BF08
:10042000704793F07F4F04BF41F40021704730B50F
:100430004FF4607401F0004521F000411CE700BF5B
:1004400050EA010208BF704730B54FF000050AE0DE
:1004500050EA010208BF704730B511F0004502D5DF
:10046000404261EB41014FF4806404F132045FEAE1
:10047000915C3FF4D8AE4FF003025FEADC0C18BF8A
:1004800003325FEADC0C18BF033202EBDC02C2F17C
:10049000200300FA03FC20FA02F001FA03FE40EA0E
:1004A0000E0021FA02F11444BDE600BF70B54FF012
:1004B000FF0C4CF4E06C1CEA11541DBF1CEA1355F0
:1004C00094EA0C0F95EA0C0F00F0DEF82C4481EA58
:1004D000030621EA4C5123EA4C5350EA013518BF78
:1004E00052EA033541F4801143F4801338D0A0FB65
:1004F00002CE4FF00005E1FB02E506F00042E0FB12
:1005000003E54FF00006E1FB03569CF0000F18BF17
:100510004EF0010EA4F1FF04B6F5007F64F54074BF
:1005200004D25FEA4E0E6D4146EB060642EAC62152
:1005300041EA55514FEAC52040EA5E504FEACE2EBF
:10054000B4F1FD0C88BFBCF5E06F1ED8BEF1004FC2
:1005500008BF5FEA500E50F1000041EB045170BD3E
:1005600006F0004646EA010140EA020081EA030182
:10057000B4EB5C04C2BFD4EB0C0541EA045170BD7E
:1005800041F480114FF0000E013C00F3AB8014F1F8
:10059000360FDEBF002001F0004170BDC4F1000441
:1005A000203C35DA0C341BDC04F11404C4F12005C2
:1005B00000FA05F320FA04F001FA05F240EA02001D
:1005C00001F0004221F0004110EBD37021FA04F653
:1005D00042EB06015EEA430E08BF20EAD37070BD0D
:1005E000C4F10C04C4F1200500FA04F320FA05F06C
:1005F00001FA04F240EA020001F0004110EBD3706E
:1006000041F100015EEA430E08BF20EAD37070BDDD
:10061000C4F1200500FA05F24EEA020E20FA04F3B6
:1006200001FA05F243EA020321FA04F001F0004165
:1006300021FA04F220EA020000EBD3705EEA430ED6
:1006400008BF20EAD37070BD94F0000F0FD101F005
:100650000046400041EB010111F4801F08BF013C3E
:10066000F7D041EA060195F0000F18BF704703F07C
:100670000046520043EB030313F4801F08BF013D03
:10068000F7D043EA0603704794EA0C0F0CEA1355BF
:1006900018BF95EA0C0F0CD050EA410618BF52EA79
:1006A0004306D1D181EA030101F000414FF000007F
:1006B00070BD50EA410606BF1046194652EA43068D
:1006C00019D094EA0C0F02D150EA013613D195EA01
:1006D0000C0F05D152EA03361CBF104619460AD149
:1006E00081EA030101F0004141F0FE4141F4700153
:1006F0004FF0000070BD41F0FE4141F4780170BD43
:1007000070B54FF0FF0C4CF4E06C1CEA11541DBFA7
:100710001CEA135594EA0C0F95EA0C0F00F0A7F8A9
:10072000A4EB050481EA030E52EA03354FEA0131D6
:1007300000F088804FEA03334FF0805545EA1313E9
:1007400043EA12634FEA022245EA111545EA1065B1
:100750004FEA00260EF000419D4208BF964244F148
:10076000FD0404F5407402D25B084FEA3202B61A67
:1007700065EB03055B084FEA32024FF480104FF43B
:10078000002CB6EB020E75EB030E22BFB61A7546AF
:1007900040EA0C005B084FEA3202B6EB020E75EB42
:1007A000030E22BFB61A754640EA5C005B084FEAAA
:1007B0003202B6EB020E75EB030E22BFB61A754677
:1007C00040EA9C005B084FEA3202B6EB020E75EB82
:1007D000030E22BFB61A754640EADC0055EA060E43
:1007E00018D04FEA051545EA16754FEA06164FEA86
:1007F000C30343EA52734FEAC2025FEA1C1CC0D132
:1008000011F4801F0BD141EA00014FF000004FF0BE
:10081000004CB6E711F4801F04BF01430020B4F17F
:10082000FD0C88BFBCF5E06F3FF6AFAEB5EB030C37
:1008300004BFB6EB020C5FEA500C50F1000041EB34
:10084000045170BD0EF0004E4EEA113114EB5C0401
:10085000C2BFD4EB0C0541EA045170BD41F48011D4
:100860004FF0000E013C90E645EA060E8DE60CEADC
:10087000135594EA0C0F08BF95EA0C0F3FF43BAFF9
:1008800094EA0C0F0AD150EA01347FF434AF95EAB0
:100890000C0F7FF425AF104619462CE795EA0C0F94
:1008A00006D152EA03353FF4FDAE1046194622E761
:1008B00050EA410618BF52EA43067FF4C5AE50EA3B
:1008C00041047FF40DAF52EA43057FF4EBAE12E72B
:1008D0004FF0FF3C06E000BF4FF0010C02E000BF0C
:1008E0004FF0010C4DF804CD4FEA410C7FEA6C5CEF
:1008F0004FEA430C18BF7FEA6C5C1BD001B050EA92
:10090000410C0CBF52EA430C91EA030F02BF90EA7C
:10091000020F0020704710F1000F91EA030F58BF3B
:10092000994208BF90422CBFD8176FEAE37040F09D
:10093000010070474FEA410C7FEA6C5C02D150EA3B
:10094000013C07D14FEA430C7FEA6C5CD6D152EAF6
:10095000033CD3D05DF8040B704700BF84461046BB
:1009600062468C461946634600E000BF01B5FFF7BA
:10097000B7FF002848BF10F1000F01BD4DF808ED8A
:10098000FFF7F4FF0CBF012000205DF808FB00BF5B
:100990004DF808EDFFF7EAFF34BF012000205DF8B5
:1009A00008FB00BF4DF808EDFFF7E0FF94BF012002
:1009B00000205DF808FB00BF4DF808EDFFF7CEFF03
:1009C00094BF012000205DF808FB00BF4DF808ED42
:1009D000FFF7C4FF34BF012000205DF808FB00BF13
:1009E0004FEA410C7FEA6C5C02D150EA013C0AD12B
:1009F0004FEA430C7FEA6C5C02D152EA033C02D11D
:100A00004FF0000070474FF0010070474FEA41027D
:100A100012F5001215D211D56FF47873B3EB625250
:100A200012D94FEAC12343F0004343EA505311F077
:100A3000004F23FA02F018BF404270474FF0000009
:100A4000704750EA013005D111F0004008BF6FF047
:100A5000004070474FF00000704700BF4A0011D2BD
:100A600012F5001211D20DD56FF47873B3EB625208
:100A70000ED44FEAC12343F0004343EA505323FA14
:100A800002F070474FF00000704750EA013002D189
:100A90004FF0FF3070474FF00000704710B5054C25
:100AA000237833B9044B13B10448AFF3008001231A
:100AB000237010BD6C0200200000000008840008B4
:100AC00008B5034B1BB103490348AFF3008008BDD1
:100AD0000000000070020020088400082DE9F041A9
:100AE00088B0002404940594069407943A4B9A69BC
:100AF00042F010029A619A6902F010020092009A84
:100B00009A6942F020029A619A6902F020020192E9
:100B1000019A9A6942F004029A619A6902F0040209
:100B20000292029A9A6942F008029A619B6903F064
:100B300008030393039B294E22464FF490713046DD
:100B400002F08CF801224021304602F087F8244F51
:100B500001222021384602F081F84FF4907304936B
:100B60000125059506944FF00208CDF81C8004A9D4
:100B7000304601F063FF4023049305950695CDF8B8
:100B80001C8004A9304601F059FF18230493154B2B
:100B90000593069404A9384601F050FF20230493DE
:100BA00005950695CDF81C8004A9384601F046FF4E
:100BB00022462146092002F0E7F8092002F018F940
:100BC000224621460A2002F0DFF80A2002F010F93E
:100BD00008B0BDE8F08100BF0010024000080140ED
:100BE000000C01400000211008B50948094B0360C2
:100BF000094B436000238360C3604FF4804202616D
:100C000043618361C361036201F0E6F808BD00BF80
:100C10004003002000540040A086010030B58DB094
:100C20000024019402940F4D4FF080432B606C60C0
:100C3000AC600123EB602C61AC61039304940593D9
:100C400006940794089409930A940B9403A92846E0
:100C500002F050FE0194029401A9284602F043FFDD
:100C60000DB030BD2C04002030B585B00024ADF8A7
:100C70000C408DF80E400294009401941B4D1C4BC7
:100C80002B604FF0FF336B604FF48073AB602846EE
:100C900002F068FC0F238DF80C3026238DF80D3000
:100CA0008DF80E40224603A9284602F059FA022385
:100CB0008DF8083009238DF8093016238DF80A3095
:100CC00014238DF80B30224602A9284602F030FB8F
:100CD0008DF800408DF801408DF8024001942246C5
:100CE0006946284602F08EFB05B030BD180400208E
:100CF0000028004030B587B0002402940394049487
:100D00000594009401940E4D0E4B2B6053236B60A1
:100D1000AC603123EB602C61AC61284602F0D0FD61
:100D20004FF48053029302A9284602F03CFE00943F
:100D300001946946284602F0D6FE07B030BD00BFD8
:100D4000940300200004004030B587B000240294D2
:100D5000039404940594009401940F4D0F4B2B6061
:100D600040F6B8336B60AC6042F21073EB602C61FC
:100D7000AC61284602F0A4FD4FF48053029302A90F
:100D8000284602F010FE009401946946284602F0BD
:100D9000AAFE07B030BD00BFC0020020000800401E
:100DA00008B50848084B03604FF41653436000230E
:100DB0008360C36003610C2242618361C36102F0FE
:100DC00093FF08BDD40300200038014008B508484F
:100DD000084B03604FF4E133436000238360C3603A
:100DE00003610C2242618361C36102F07DFF08BD93
:100DF000000300200048004008B50848084B036085
:100E00004FF41653436000238360C36003610822DC
:100E100042618361C36102F067FF08BD6C0400207A
:100E20000044004070B594B000240F9410940594D1
:100E300006940794089409940194029403940494EA
:100E400005230A934FF480330B930C9401250D95E1
:100E50000E950226119612934FF4801313930AA84D
:100E600001F0CEF90F230593069607944FF48063A3
:100E700008930994294605A801F000FC01954FF458
:100E80008073029301A801F0D5FC14B070BD00007E
:100E900002460020044B1B5C23B1934203D0013077
:100EA000C0B2F7E7642070478802002008B500232D
:100EB000074AD25C2AB1064A0021D1540133DBB281
:100EC000F6E7044B1A702021034801F0C7FE08BD65
:100ED00088020020970200200008014008B503F0B6
:100EE000FBFA0021084603F004FB024803F04DFB27
:100EF00008BD00BF4884000800B587B00721002066
:100F000003F0F7FA1F4B1A78002A37D01E496846BB
:100F100004F012FB6846FFF705F903460DEB0001EC
:100F20001A4A10684DF803009088937988808B7175
:100F3000684603F02AFB0021012003F0DAFA0023BF
:100F400002930393049305930E4B197801EB41012F
:100F50000F4B03EB810102A804F01DFB0D4B197828
:100F600001EB41010C4B03EB410102A804F004FB2F
:100F700002A803F00AFB07B05DF804FB074803F082
:100F800004FBD8E7990200209C84000854840008E0
:100F900034000020A0020020AC8400085C8400081B
:100FA00010B584B003F098FA0021084603F0A1FAC6
:100FB0001F4B1B7853BB1F4C20781F4B03EB0010BB
:100FC00003F0E3FA2378012B1DD00021012003F068
:100FD00090FA00230093019302930393154B197821
:100FE00001EB410401EB8401144B1944684604F001
:100FF000D2FA134901EB4401684604F0BDFA684691
:1010000003F0C3FA12E0FFF777FF0FE00D4A6B46DB
:1010100092E8030083E803000022ADF808200A4AA2
:1010200012788DF80720184603F0AFFA04B010BD0F
:1010300097020020A0020020C484000800000020C5
:10104000AC840008208400088802002030B585B0F8
:101050000446FFF71DFF642801D005B030BD002312
:101060000293ADF80C300D4B93E803000190ADF8FE
:1010700008108DF80A404FF6FF730A2201A90848AC
:1010800002F061FE074D2846FFF74CF82C54064A43
:10109000137801331370FFF783FFDEE764840008E1
:1010A0006C040020880200209702002008B5FFF79A
:1010B000EFFE64280FD00D4B1B5C33B1421C0B4B71
:1010C0009A5C1A540130C0B2F5E7094A1378013B23
:1010D0001370FFF765FF064B1B7803B108BD0022B4
:1010E0002021044801F0BAFDF8E700BF8802002083
:1010F000970200200008014000B58FB0022240F6A0
:101100000201134803F048FB03F059FCCDE900014C
:10111000104A192107A804F0DBF90F2303AA07A935
:101120000D4803F0B9F80D4903A8FEF7F1FF20B10F
:101130000B4903A8FEF7ECFF28B93320FFF786FF21
:101140000FB05DF804FB3320FFF7B0FFF8E700BFF6
:10115000D40300206C84000800030020748400087D
:101160007C84000870B586B0444B1B784BB1012BD2
:1011700023D0022B7ED001F003F8414B186006B05B
:1011800070BD012240F602013E4803F005FB054612
:101190003A4B1B7803EB430203EB82033A4C1C44AB
:1011A00001462046FEF7B4FF0028E4D02946204639
:1011B00004F0F1F9FFF7F4FEDDE7344C217801F299
:1011C0000241022249002F4803F0E6FA054623783F
:1011D00003EB43032E4C04EB830401462046FEF749
:1011E00097FF0028C7D02B4B1B78012BC3D0294673
:1011F000204604F0D0F9FFF7D3FEBCE706F2024127
:10120000490089B202221F4803F0C6FA03F0D7FB57
:1012100002460B4620462946FEF792FF04460D463D
:101220000136062EEADD0023039304930593002282
:10123000194B20462946FFF763FACDE90001174A0A
:101240000C210DEB010004F043F90C4B1B7803EB70
:10125000430203EB82030C4C1C4403A92046FEF717
:1012600057FF002887D003A9204604F094F9FFF720
:1012700097FE80E7002600240025D2E7A002002088
:1012800014040020D4030020000000209902002054
:10129000340000209802002000001C4080840008D8
:1012A000F0B585B005462F4B1B78022B02D01026D7
:1012B00000240CE0012801D01026F9E71926F7E7F1
:1012C00003F06CF90AE0282000F060FF0134374693
:1012D000A64208DD012DF3D003F065F90F2CF2D101
:1012E00003F0FAF8F2E7002402E003F057F90134C2
:1012F000A74204DD012DF8D103F055F9F7E7C82026
:1013000000F044FF0021084603F0F3F8154C207864
:10131000154B03EB001003F038F92378012B1ED096
:101320000021012003F0E5F80023009301930293CC
:1013300003930C4B197801EB410401EB84010B4B37
:101340001944684604F027F9094901EB440168464D
:1013500004F012F9684603F018F905B0F0BDFFF784
:10136000CBFDFAE7A0020020C484000800000020A2
:10137000AC84000800B591B000F0E4FEFFF752FD28
:10138000FFF7ACFBFFF730FCFFF748FCFFF76CFC06
:10139000FFF7B0FCFFF7D8FCFFF702FDFFF716FDE3
:1013A000FFF72AFD0421A74802F07BFB4FF4FA70F7
:1013B00000F0ECFE03F0ABF803F08EF800210846D5
:1013C00003F097F8A04C2078A04B03EB001003F03B
:1013D000DCF80021012003F08CF800230C930D931E
:1013E0000E930F93237803EB430403EB8403984994
:1013F00019440CA804F0CFF8964901EB44010CA85D
:1014000004F0BAF80CA803F0C0F8934803F0E2F82F
:10141000FFF7A8FE914C2268914B1A60914A9249BD
:10142000924802F089FF00F0ABFE206029E0012223
:1014300020218F4801F012FC27E08A4B5B78322B89
:1014400003D88C4B1B789A4235D17E4B1B685B6A64
:10145000DBB2894A1370012B49D000F091FE804B1A
:101460001B68C01A41F28833984200F2D98000F01C
:1014700087FE7A4B1B68C01A42F21073984200F242
:10148000D2807E4B1B78002BD1D100227549764843
:1014900001F0C8FE794B1B78002BD6D1714B1A781E
:1014A000531FDBB2112BC8D9042ACED16D4B5B7808
:1014B000002BCAD0C1E7FFF71FFE6A490A786D4BBF
:1014C0001A700023059306930793089309930A93D0
:1014D0008DF82C304B786A4905A804F02DF84FF6AA
:1014E000FF73192205A9674802F02DFCADE700F053
:1014F00047FE5A4B1860644B1B78012B30D0514B80
:101500001B681B6813F0100F08D14F4B1B78FBB101
:10151000013B4D4A13700020FFF7C2FE494B1B6888
:101520001B6813F0100F09D0474B1B78032B13D007
:101530000133454A13700120FFF7B2FEC82000F0C6
:1015400025FE404B1B6800225A62FFF70BFE84E722
:101550003D4B03221A70DEE73B4B00221A70EAE78C
:101560000721002002F0C5FF4FF080431B6813F0F5
:10157000100F24D1454B1B78012B08D8012B41D0EB
:10158000424B06221A70424802F0FFFF17E0013B6F
:10159000DAB23E4B1A7005AC3E49204603F0CCFF50
:1015A0002046FEF7BFFD034621183B4A1068E05075
:1015B0009088937988808B71204602F0E6FF4FF087
:1015C00080431B6813F0100FB8D0304B1B78062BEC
:1015D0001FD00133DAB22D4B1A7005AC2D492046CD
:1015E00003F0AAFF2046FEF79DFD034621182A4A74
:1015F0001068E0509088937988808B71204602F0C3
:10160000C4FF9BE7214B00221A70244802F0BDFF63
:10161000D5E71E4B00221A70204802F0B6FF8DE776
:10162000FFF7A0FD23E7174B03930C4B0293164BD8
:101630000193114B0093044B0C4A0A490A4803F0EA
:101640005FF91EE72C040020A0020020C4840008DB
:1016500000000020AC840008D4030020BC0200205D
:10166000140400209C020020180400200003002025
:1016700000080140880000209F02002097020020FF
:10168000888400086C040020980200209902002041
:10169000A08400089C840008548400085C8400082E
:1016A00008B50268094B9A4200D008BD084801F00D
:1016B000F5FF084B10225A61074B4FF48062C3F8C4
:1016C00080210A2001F094FBEFE700BF00080040F2
:1016D000C00200200004014000E100E0102800D01A
:1016E000704710B500F04CFD194B18600A2001F04E
:1016F0008DFB184B1B781BB1174801F0BEFF10BDC6
:10170000FFF74EFC154B1B78012BF5D1144B1B78C2
:1017100053B9134B01221A700F21002002F0E9FE89
:10172000104802F032FFE7E700240D4B1C7002F076
:10173000D3FE2146204602F0DCFE084B18780A4B07
:1017400003EB001002F021FFFFF7D6FBD4E700BF48
:10175000BC02002097020020C0020020A00200204E
:1017600098020020A8840008C484000870477047CD
:101770007047FEE7FEE7FEE7FEE7704770477047F9
:1017800008B500F0F1FC08BD08B5082001F06CFABE
:1017900008BD08B5102001F067FA08BD08B5024879
:1017A00001F096FF08BD00BF2C04002008B50248D8
:1017B00001F08EFF08BD00BF9403002008B5024869
:1017C00001F086FF08BD00BFC002002008B5024836
:1017D00002F0E2FB08BD00BFD403002008B50248B8
:1017E00002F0DAFB08BD00BF0003002008B5024884
:1017F00001F080FE08BD00BF1804002082B00E4B2F
:101800009A6942F001029A619A6902F0010200921B
:10181000009ADA6942F08052DA61DB6903F08053A2
:101820000193019B054A536823F0E06343F0007382
:10183000536002B0704700BF00100240000001403A
:1018400010B586B0002302930393049305930268B6
:10185000154B9A4201D006B010BD144CA36943F059
:101860000803A361A36903F008030093009B4FF4EE
:1018700040730293122303930323059302A90C4898
:1018800001F0DCF80B4A536843F0E06343F00203D5
:101890005360E36943F40013E361E36903F4001365
:1018A0000193019BD7E700BF0054004000100240A5
:1018B000000C0140000001400268104B9A4200D029
:1018C000704700B583B001F0CDFA0D4BDA6942F0F4
:1018D0000062DA61DB6903F000630193019B094B4D
:1018E00001221A6000221146292001F04DFA292018
:1018F00001F07EFA03B05DF804FB00BF0028004051
:10190000001002403C04424210B586B0002302930E
:101910000393049305930368B3F1804F01D006B09D
:1019200010BD03F50433DA6942F00102DA61DA69C5
:1019300002F001020092009A9A6942F004029A6150
:101940009B6903F004030193019B0323029300248A
:1019500003940123049302A9054801F06FF822467D
:1019600021461C2001F010FA1C2001F041FAD6E7B4
:101970000008014000B583B00368174A934205D0C0
:10198000164A934215D003B05DF804FB144BDA6994
:1019900042F00202DA61DB6903F002030093009B6C
:1019A000002211461D2001F0EFF91D2001F020FA60
:1019B000E9E70B4BDA6942F00402DA61DB6903F014
:1019C00004030193019B002211461E2001F0DCF963
:1019D0001E2001F00DFAD6E7000400400008004088
:1019E0000010024030B58BB0002306930793089394
:1019F000099303684B4A934207D04B4A934236D02F
:101A00004A4A93425BD00BB030BD494B9A6942F4CD
:101A100080429A619A6902F480420092009A9A691F
:101A200042F004029A619B6903F004030193019B55
:101A30004FF40073069302230793032309933D4D4C
:101A400006A9284600F0FAFF4FF4806306930024AD
:101A50000794089406A9284600F0F0FF2246214684
:101A6000252001F091F9252001F0C2F9CBE7304B98
:101A7000DA6942F40032DA61DA6902F40032029281
:101A8000029A9A6942F004029A619B6903F0040386
:101A90000393039B042306930223079303230993D1
:101AA000244C06A9204600F0C9FF08230693002312
:101AB0000793089306A9204600F0C0FFA3E71C4B3C
:101AC000DA6942F48022DA61DA6902F4802204924F
:101AD000049A9A6942F008029A619B6903F008032C
:101AE0000593059B4FF4806306930223079303231A
:101AF0000993114D06A9284600F0A0FF4FF400639A
:101B0000069300240794089406A9284600F096FF3F
:101B100022462146272001F037F9272001F068F9F5
:101B200071E700BF00380140004400400048004019
:101B30000010024000080140000C014003685A698F
:101B400012F4806F01D1002070476FF480625A61F7
:101B500000230363202280F83D2080F83E30026C91
:101B600042F00402026480F83C30012070472DE905
:101B7000F04107460D4690461E4622E000F000FB6D
:101B8000069BC01AB04200D8DEB900233B63202276
:101B900087F83D2087F83E303A6C42F020023A64E4
:101BA00087F83C3001201AE03B689C6925EA040470
:101BB000A4B2B4FA84F46409A0450FD1B6F1FF3F92
:101BC000DCD1C5F30743012BEED13B685C6925EA04
:101BD0000404A4B2B4FA84F46409EDE70020BDE87B
:101BE000F0812DE9F04105460E46174698463DE046
:101BF0001A6842F400721A602B686FF480625A61AE
:101C000000232B63202285F83D2085F83E302A6C86
:101C100042F004022A6485F83C30012034E000F0F0
:101C2000AFFAA0EB0800B84200D8FFB900232B633D
:101C3000202285F83D2085F83E302A6C42F02002B3
:101C40002A6485F83C3001201EE02B689C6926EA56
:101C50000404A4B2003C18BF0124A4B12B685A6943
:101C600012F4806FC4D1B7F1FF3FD8D1C6F3074358
:101C7000012BEAD12B685C6926EA0404A4B2003C7B
:101C800018BF0124E9E70020BDE8F081F0B583B07A
:101C900004460D4616461F46C36A082B0DD0012B7D
:101CA0000BD013F5803F08D0036B122B0AD10268CA
:101CB000136843F48073136004E02268136843F4EC
:101CC000807313600097334600224FF001112046C5
:101CD000FFF74DFF10BB2369B3F5804F0CD123688C
:101CE00005F0FE051D613B4632460F492046FFF7D1
:101CF00078FFB8B903B0F0BDEB11226803F006031A
:101D000043F0F00313613B46324608492046FFF793
:101D100068FF28B92368EDB21D61E4E70120E9E717
:101D20000120E7E70120E5E70200010008000100CB
:101D300070B504460D46164623685B6913F0800FA4
:101D40001CD12046FFF7FAFED0B9B5F1FF3FF3D022
:101D500000F016FA801BA84201D8002DECD1002318
:101D60002363202284F83D2084F83E30226C42F028
:101D70002002226484F83C30012000E0002070BD85
:101D80000120FCE770B504460D46164623685B69E2
:101D900013F0040F1CD12046FFF7D0FED0B9B5F1E7
:101DA000FF3FF3D000F0ECF9801BA84201D8002DD2
:101DB000ECD100232363202284F83D2084F83E30B8
:101DC000226C42F02002226484F83C30012000E0C2
:101DD000002070BD0120FCE7002800F0C280F8B5AB
:101DE000044690F83D30002B6DD0242384F83D301C
:101DF0002268136823F00103136000F0FBFC6268A3
:101E00005A4B9A4264D85A4B98428CBF0023012304
:101E1000002B40F0A880574DA5FB0035AF0C26687D
:101E2000716821F03F0141EA9541716021680B6AB8
:101E300023F03F0365684D4A95424FD87A1C1343FF
:101E40000B622568E96921F44F4121F0FF016368C5
:101E5000464A93424CD801385B00B0FBF3F00130A6
:101E600040F6FC73184278D0C0F30B030B43EB61D0
:101E700021680B6823F0C003E269206A0243134320
:101E80000B6021688B6823F4034323F0FF0322696E
:101E9000E068024313438B602168CB6823F0FF03A3
:101EA0006269A06902431343CB602268136843F060
:101EB0000103136000202064202384F83D30206358
:101EC00084F83E00F8BD80F83C30FFF7B9FC8CE7A1
:101ED000294B98428CBF0023012399E74FF4967257
:101EE00002FB07F2254DA5FB025292090132A6E73B
:101EF000A268BAB9461E03EB4307B6FBF7F60136F4
:101F0000C6F30B06B6FA86F6760946BBC2B9421E80
:101F100003EB4303B2FBF3F20132C2F30B0242F4D0
:101F20000043A3E7461E03EB830707EB8707B6FBD7
:101F3000F7F60136C6F30B06B6FA86F67609E4E73D
:101F4000421E03EB830303EB8303B2FBF3F2013284
:101F5000C2F30B0242F4404388E7042386E70123DF
:101F600084E7012070470120ACE700BFA086010094
:101F70007F841E0083DE1B43FF083D00D34D6210AB
:101F80002DE9F04385B004460F46914698460C9ED5
:101F900000F0F6F8054694F83D00C0B2202804D0C1
:101FA0000227384605B0BDE8F083009519230122C9
:101FB0004F492046FFF7DBFD002840F0928094F85F
:101FC0003C30012B00F08F80012384F83C302368E3
:101FD0001A6812F0010F03D11A6842F001021A6068
:101FE0002268136823F400631360212384F83D30D2
:101FF000102384F83E3000232364C4F82490A4F80E
:102000002A80638D23853B4BE3622B46324639465B
:102010002046FFF73BFE0746002866D100230393C6
:1020200023685A6903929B690393039B11E0236C15
:10203000042B01D00127B4E72268136843F400732E
:102040001360F7E72A4631462046FFF79BFE00283B
:102050002ED1238D002B36D02A4631462046FFF75D
:1020600067FE0028E3D1626A236812781A61616A08
:102070004B1C6362638D9BB2013B9BB26385238DD6
:10208000013B9BB223852268506910F0040FD9D020
:10209000002BD7D04B781361636A01336362638D81
:1020A0009BB2013B9BB26385238D013B2385C9E72E
:1020B000236C042B01D0012773E72268136843F4D3
:1020C00000731360F7E72268136843F4007313602A
:1020D000202384F83D30002384F83E3084F83C30DF
:1020E0005FE702275DE702275BE7012759E700BFAB
:1020F000020010000000FFFF10B504460E4B1878D8
:102100004FF47A73B3FBF0F30C4A1068B0FBF3F0B2
:1021100000F08EFE68B90F2C01D901200AE00022E0
:1021200021464FF0FF3000F02FFE054B1C600020D1
:1021300000E0012010BD00BF8900002090000020B9
:102140008C00002008B5074A136843F010031360A1
:10215000032000F007FE0020FFF7CEFFFFF74EFB45
:10216000002008BD00200240034A1168034B1B7881
:102170000B441360704700BFAC04002089000020AE
:10218000014B1868704700BFAC04002038B5044606
:10219000FFF7F6FF0546B4F1FF3F02D0044B1B7872
:1021A0001C44FFF7EDFF401BA042FAD338BD00BF2F
:1021B00089000020024A136823F00203136070476D
:1021C00010E000E0024A136843F002031360704716
:1021D00010E000E082B0084B1B68084AA2FB032312
:1021E0005B0A00FB03F3019300BF019B5A1E01929F
:1021F000002BF9D102B0704790000020D34D62103F
:10220000002800F0F18170B582B00446036813F035
:10221000010F2CD0AA4B5B6803F00C03042B1DD0DC
:10222000A74B5B6803F00C03082B12D06368B3F56F
:10223000803F41D0002B55D103F1804303F5043397
:102240001A6822F480321A601A6822F480221A6016
:1022500037E09B4B5B6813F4803FE7D0984B1B68DB
:1022600013F4003F03D06368002B00F0BF812368A4
:1022700013F0020F75D0924B5B6813F00C0F5FD018
:102280008F4B5B6803F00C03082B54D02369002BA1
:1022900000F089808B4B01221A60FFF771FF054621
:1022A000874B1B6813F0020F74D1FFF769FF401BC7
:1022B0000228F5D903209EE1814A136843F4803354
:1022C0001360636843B3FFF75BFF05467C4B1B68F5
:1022D00013F4003FCBD1FFF753FF401B6428F5D91F
:1022E000032088E1B3F5A02F09D0754B1A6822F4BA
:1022F00080321A601A6822F480221A60E1E703F142
:102300008043A3F53C331A6842F480221A601A68AD
:1023100042F480321A60D4E7FFF732FF0546684B7B
:102320001B6813F4003FA2D0FFF72AFF401B64286C
:10233000F5D903205FE1624B5B6813F4803FA5D1C0
:102340005F4B1B6813F0020F03D02369012B40F091
:102350004F815B4A136823F0F803616943EAC103C4
:102360001360236813F0080F32D0A369002B45D007
:10237000554B01221A60FFF703FF0546504B5B6A7D
:1023800013F0020F21D1FFF7FBFE401B0228F5D905
:10239000032030E14A4A136823F0F803616943EAF5
:1023A000C1031360DDE7474B00221A60FFF7E8FE28
:1023B0000546434B1B6813F0020FD2D0FFF7E0FE37
:1023C000401B0228F5D9032015E10120FFF702FF89
:1023D000236813F0040F00F09780394BDB6913F08A
:1023E000805F1DD1364BDA6942F08052DA61DB69D9
:1023F00003F080530193019B012512E0324B002230
:102400001A60FFF7BDFE05462D4B5B6A13F0020F05
:10241000DED0FFF7B5FE401B0228F5D90320EAE025
:1024200000252A4B1B6813F4807F11D0E368012B31
:1024300022D0002B38D103F1804303F504331A6A0C
:1024400022F001021A621A6A22F004021A6218E0EB
:102450001E4A136843F480731360FFF791FE06462B
:102460001A4B1B6813F4807FE0D1FFF789FE801BB5
:102470006428F5D90320BEE0114A136A43F0010332
:102480001362E36873B3FFF77BFE06460C4B1B6ACF
:1024900013F0020F37D1FFF773FE801B41F2883330
:1024A0009842F3D90320A6E0052B11D0044B1A6AF9
:1024B00022F001021A621A6A22F004021A62E0E7AC
:1024C000001002400000424280044242007000407E
:1024D0004D4B1A6A42F004021A621A6A42F0010273
:1024E0001A62CEE7FFF74CFE0646474B1B6A13F015
:1024F000020F08D0FFF744FE801B41F28833984258
:10250000F3D9032077E0E5B9E369002B72D03E4AA6
:10251000526802F00C02082A56D0022B17D03B4B0F
:1025200000221A60FFF72CFE0446374B1B6813F09D
:10253000007F47D0FFF724FE001B0228F5D90320B7
:1025400059E0314AD36923F08053D361DCE72F4B44
:1025500000221A60FFF714FE05462B4B1B6813F090
:10256000007F06D0FFF70CFE401B0228F5D90320A0
:1025700041E0236AB3F5803F1AD023494B6823F426
:102580007413226A606A024313434B601F4B01229B
:102590001A60FFF7F5FD04461B4B1B6813F0007F24
:1025A0000ED1FFF7EDFD001B0228F5D9032022E034
:1025B000154A536823F40033A1680B435360DCE7EA
:1025C000002018E0002016E0012B16D00E4B5B68AF
:1025D00003F48031226A914211D103F47013626ACC
:1025E00093420ED1002006E001207047012002E056
:1025F000012000E0002002B070BD0120FBE70120B7
:10260000F9E70120F7E700BF0010024060004242F6
:1026100086B0164B0FCB0DF1180C0CE90F0040F2F1
:102620000123ADF80430124B5B6803F00C02082A5A
:1026300002D0104806B07047C3F38342624412F8D8
:10264000102C13F4803F0CD0094B5B68C3F340435C
:10265000634413F8143C074800FB02F0B0FBF3F0AE
:10266000E8E7054800FB02F0E4E700BF0485000846
:102670000010024000127A0000093D00002800F01E
:10268000A08070B50D460446524B1B6803F007034B
:102690008B420BD24F4A136823F007030B4313609E
:1026A000136803F007038B4240F08D80236813F01A
:1026B000020F17D013F0040F04D0474A536843F4B5
:1026C000E0635360236813F0080F04D0424A536854
:1026D00043F460535360404A536823F0F003A16809
:1026E0000B435360236813F0010F31D06368012B53
:1026F00020D0022B25D0384A126812F0020F64D085
:1027000035494A6822F0030213434B60FFF738FD56
:102710000646314B5B6803F00C036268B3EB820F33
:1027200016D0FFF72DFD801B41F288339842F0D977
:10273000032045E0284A126812F4003FE0D101204E
:102740003EE0254A126812F0007FD9D1012037E01F
:10275000204B1B6803F00703AB420AD91D4A1368DC
:1027600023F007032B431360136803F00703AB4206
:102770002DD1236813F0040F06D0174A536823F4B1
:10278000E063E1680B435360236813F0080F07D040
:10279000114A536823F46053216943EAC10353602B
:1027A000FFF736FF0C4B5B68C3F303130B4AD35C94
:1027B000D8400B4B18600B4B1868FFF79DFC0020AE
:1027C00070BD012070470120FAE70120F8E70120E1
:1027D000F6E700BF00200240001002401885000804
:1027E000900000208C000020014B1868704700BF4B
:1027F0009000002008B5FFF7F7FF044B5B68C3F3B8
:102800000223034AD35CD84008BD00BF0010024039
:102810002885000808B5FFF7E7FF044B5B68C3F3A2
:10282000C223034AD35CD84008BD00BF0010024059
:102830002885000870B582B00446036813F0010FC4
:1028400034D03E4BDB6913F0805F47D13B4BDA69F4
:1028500042F08052DA61DB6903F080530193019BFF
:102860000125374B1B6813F4807F39D0334B1B6A2B
:1028700013F4407311D0626802F440729A420CD093
:102880002E4A136A23F440702E4901260E6000265A
:102890000E60106213F0010F36D1284A136A23F438
:1028A000407361680B431362002D3ED1236813F01F
:1028B000020F06D0214A536823F44043A1680B431A
:1028C0005360236813F0100F34D01C4A536823F46C
:1028D0008003E1680B43536000202CE00025C0E733
:1028E000174A136843F480731360FFF749FC0646E8
:1028F000134B1B6813F4807FB8D1FFF741FC801B9A
:102900006428F5D9032016E0FFF73AFC06460B4B86
:102910001B6A13F0020FC0D1FFF732FC801B41F29B
:1029200088339842F3D9032005E0D36923F080531C
:10293000D361BBE7002002B070BD00BF00100240B1
:10294000007000404004424210B586B00446364B49
:102950000FCB0DF1180C0CE90F0040F20123ADF87C
:102960000430022C52D0102C04D0012C2CD000208A
:1029700006B010BD2D4B5A68186810F08070F7D063
:10298000C2F3834306A90B4413F8100C12F4803FE2
:1029900016D0264B5B68C3F340430B4413F8142C4A
:1029A000234BB3FBF2F300FB03F0204B5B6813F403
:1029B000800FDDD140001F4BA3FB00304008D7E75C
:1029C0001D4B03FB00F0F0E7184B1B6A40F202328C
:1029D0001A40B2F5817F24D003F44073B3F5007F31
:1029E00004D0B3F5407F09D00020C1E70F4A526AF6
:1029F00012F0020FF5D049F64040B9E70B4B1868CA
:102A000010F40030B4D04FF22440B1E7FFF702FFDA
:102A1000064B5B68C3F3813301335B00B0FBF3F01B
:102A2000A6E74FF40040A3E7048500080010024029
:102A300000127A00ABAAAAAA00093D00F0B482B045
:102A400000252C46A3E07F4FBB4210D007D97E4F14
:102A5000BB420CD007F58037BB4208D013E0A7F586
:102A60008017BB4203D007F57027BB4207D18B68A4
:102A7000002B58D0012B51D04261082503E0A7F567
:102A80008017BB42F3D0FF2E4FD88446FF2E4FD87D
:102A9000A200DCF800300F27974023EA070305FA6D
:102AA00002F21343CCF800304B6813F0805F6DD016
:102AB000664B9A6942F001029A619B6903F0010337
:102AC0000193019BA208971C614B53F8273004F037
:102AD0000307BF004FF00F0C0CFA07FC23EA0C0CA5
:102AE0005C4B98422AD003F58063984200F08A80BC
:102AF00003F58063984200F0878003F58063984275
:102B00001AD004231BE0CD68BDE7CD680435BAE7D1
:102B1000CD680835B7E7CD680C35B4E70261082504
:102B2000B1E70025AFE70425ADE700F1040CADE700
:102B3000A4F108029200ACE7032300E00023BB40AD
:102B400043EA0C030232424F47F822304B6813F439
:102B5000803F5BD0404A1368334313604B6813F4E3
:102B6000003F59D03C4A5368334353604B6813F4D9
:102B7000801F57D0384A9368334393604B6813F4EF
:102B8000001F55D0344AD3681E43D66001340B6809
:102B900033FA04F252D00122A24003EA020632EADA
:102BA0000303F3D14B68122B3FF64DAF122B3FF6C8
:102BB0006AAF01A757F823F06F2A0008072B000817
:102BC000112B0008232B0008872A0008872A0008F9
:102BD000872A0008872A0008872A0008872A000811
:102BE000872A0008872A0008872A0008872A000801
:102BF000872A0008872A0008872A00080B2B00086C
:102C0000172B000801239AE7022398E7124A13685A
:102C100023EA06031360A1E70F4A536823EA060379
:102C20005360A3E70C4A936823EA06039360A5E781
:102C3000094AD36823EA0606D660A7E702B0F0BCCB
:102C4000704700BF00002210000031100010024049
:102C50000000014000080140000401400AB1016188
:102C6000704709040161704708B5054B5B69034271
:102C700000D108BD024B5861FEF730FDF9E700BFF7
:102C80000004014090F82130022B06D00423836316
:102C9000002380F82030012070470268136823F079
:102CA0000E0313600268136823F001031360036CC2
:102CB000C16B012202FA03F34B6080F8212000234C
:102CC00080F820301846704708B590F82130022B64
:102CD00003D004238363012008BD0268136823F036
:102CE0000E0313600268136823F001031360036886
:102CF000194A934214D0143293421FD01432934293
:102D00001ED0143293421ED0143293421ED014327D
:102D1000934202D04FF0807203E04FF4801200E043
:102D200001220E4B5A60012380F82130002380F8E5
:102D30002030436B6BB198470020CDE71022F0E7BD
:102D40004FF48072EDE74FF48052EAE74FF480329F
:102D5000E7E70020C0E700BF080002400000024093
:102D6000806B7047074AD36823F4E0631B041B0C95
:102D7000000200F4E060034343F0BF6343F4003318
:102D8000D360704700ED00E030B4174BDB68C3F34D
:102D90000223C3F10704042C28BF04241D1D062DA3
:102DA00018D9033B4FF0FF3505FA04F421EA04017A
:102DB000994005FA03F322EA0303194300280BDBC9
:102DC0000901C9B200F1604000F5614080F80013CC
:102DD00030BC70470023E5E700F00F000901C9B2DD
:102DE000024B1954F4E700BF00ED00E014ED00E0E1
:102DF000002807DB00F01F02400901239340024A2C
:102E000042F82030704700BF00E100E000280CDBF2
:102E100000F01F024009012393402030034A42F88A
:102E20002030BFF34F8FBFF36F8F704700E100E09A
:102E30000138B0F1807F0AD2064B5860064AF02173
:102E400082F823100020986007221A607047012042
:102E5000704700BF10E000E000ED00E020BF00BFC1
:102E600070470000014B01221A60704720000E429B
:102E700010B50F4A146824F002041460136823F09C
:102E80000103034313600B4A136943F00403136106
:102E9000012906D130BF074A136923F004031361E7
:102EA00010BD40BFFFF7DAFFFFF7D8FFF3E700BF21
:102EB0000070004000ED00E030B402689469A5B2F3
:102EC000D369916988B2854205D0D06980B240EA61
:102ED000014030BC704798B240EA0440F9E703680B
:102EE000186A5B6A9BB243EA0040704700230928D6
:102EF00003D901330A38C0B2F9E71B01DBB218432A
:102F00007047030903EB830300F00F0000EB43005D
:102F1000C0B2704710F0030F14D10D4BA3FB002378
:102F20005B09642202FB13039BB26BB9084BA3FB42
:102F30000023DB094FF4C87202FB130080B228B9EA
:102F40000120704700207047012070470020704723
:102F50001F85EB5110B400F5FA64022922D801EB69
:102F60004103C1EBC3011F4BA3FB011302EB53034E
:102F7000234400F2CF7003EB90031B4AA2FB002016
:102F8000A3EB501303EBD01304331848A0FB03202A
:102F90001A1A00EB52008008C0EBC000181AC0B229
:102FA00010BC704701EB4103C1EBC3010D4BA3FB08
:102FB000011302EB5303234403EB94030A4AA2FBDD
:102FC0000424A3EB541303EBD41302330748A0FBF0
:102FD00003201A1A00EB52008008C0EBC000181A38
:102FE000DDE700BF398EE3381F85EB512549922478
:102FF0002DE9F84380460F4690F80F90447B857B7F
:10300000002603E01E2D1FD801350136BE423DD2F9
:10301000012CF7D0032CF5D0052CF3D0072CF1D0E0
:10302000082CEFD00A2CEDD00C2CEBD0042C15D0B2
:10303000062C13D0092C11D00B2C0FD0022CE4D16C
:103040001B2D12D80135E0E70C2C02D001340125EC
:10305000DBE709F1010901252C46D6E71D2D01D832
:103060000135D2E701340125CFE71C2D04D01D2DF9
:10307000CBD101340125C8E71FFA89F0FFF74AFFD9
:1030800008B10135C1E701340125BEE788F80F908A
:10309000E1B288F80D10EAB288F80E204846FFF732
:1030A00059FF88F80C00BDE8F88338B50446FFF7EF
:1030B00067F8054623685A6812F0200F07D1FFF71A
:1030C0005FF8401BB0F57A7FF4D9032004E05A681A
:1030D00042F010025A60002038BD38B5044602683C
:1030E000536823F010035360FFF74AF8054623683E
:1030F0005B6813F0200F07D1FFF742F8401BB0F5D3
:103100007A7FF4D9032000E0002038BD38B50546A9
:103110000C46FFF7CAFF08B1012038BD2B68220C0E
:103120009A612B68A4B2DC612846FFF7D6FF00281D
:10313000F3D00120F1E738B505460C46FFF7B5FF9F
:1031400008B1012038BD2B68220C1A622B68A4B28A
:103150005C622846FFF7C1FF0028F3D00120F1E7A9
:1031600070B5002857D00C460546002955D0037C81
:10317000012B54D00123037402234374BAB9087895
:103180004B78C3EB03139B004FF4616202FB0033E7
:103190008C781C4421462846FFF7B8FF0646C8B184
:1031A00004236B7400232B740126304670BD08780D
:1031B000FFF7A7FE4FF4616606FB00F66078FFF7A5
:1031C000A0FEC0EB001006EB8006A078FFF799FE8A
:1031D0003418DFE72A68536823F005035360284654
:1031E000FFF77DFEB0F1FF3F01D0844204D80123F8
:1031F0006B7400232B74D8E700F5A83101F5C0717A
:103200002846FFF798FF0028F1D004236B740023B1
:103210002B740126C9E70126C7E70126C5E7022668
:10322000C3E7000000286FD02DE9F8430C4615468F
:10323000064600296AD003685B6813F0040F02D0C9
:103240000120BDE8F883FFF737FE0746334BA3FBA9
:103250000023DB0A4FF4616202FB13023049A1FB39
:1032600002014809C1F347116170C0EB0010A2EBE5
:103270008002A2702B4A974210D82370002D4BD0A9
:103280002078FFF733FE20706078FFF72FFE607024
:10329000A078FFF72BFEA0700020D2E7224AA2FB05
:1032A00003284FEA181808EB4802A3EBC203237067
:1032B0003046FFF714FE8146B0F1FF3F03D087424E
:1032C00017D2A0EB0709194800FB1877394630469A
:1032D000FFF71CFFE0B9B9F1FF3F0DD009EB070183
:1032E0003046FFF728FFA8B941463046FFF780FE79
:1032F000C4E74FF0FF39E6E749463046FFF71BFFCA
:103300000028F1D001209CE701207047012098E7B8
:10331000012096E7012094E7002092E7C5B3A2912F
:10332000898888887F510100ABAAAAAA8051010030
:1033300000285AD038B50D460446002957D0037CE2
:10334000012B56D00123037402234374BAB9CB78FE
:10335000C3734B7843738B788373A27B617BE07B71
:10336000FFF7F8FD207328702046FFF7A5FD224BDC
:10337000984211D8012363740020207438BDC878A6
:10338000FFF7BFFDE0736878FFF7BBFD6073A878B7
:10339000FFF7B7FDA073E0E7184DA5FB00352D0C36
:1033A000174B03FB150529462046FFF7AFFE28B152
:1033B00004236374002323740120DFE72046FFF712
:1033C0008EFDB0F1FF3FD5D08542D3D900F5A831AD
:1033D00001F5C0712046FFF7AEFE0028CAD00423D5
:1033E0006374002323740120C8E701207047012083
:1033F000C4E70220C2E700BF8F5F010007452EC26D
:1034000080510100F0B583B00023ADF804308DF891
:103410000630002863D00C4616460546002961D0C8
:10342000037C012B60D00123037402234374002228
:1034300001A9FFF7F7FE002858D19DF804709DF808
:103440000530C3EB03139B004FF4616202FB0733AB
:103450009DF806701F44C6B921786378C3EB031347
:103460009B0002FB0131A0780144B94203D201F56F
:10347000A83101F5C0712846FFF75DFEC0B10423F5
:103480006B7400232B7401202AE02078FFF739FDAC
:103490004FF4616606FB00F66078FFF732FDC0EB83
:1034A000001006EB8006A078FFF72BFD3118DCE753
:1034B0002B686FF002025A602A68136843F0020317
:1034C00013600B4B1A6842F400321A609A6842F497
:1034D00000329A6001236B7400232B7400E00120FA
:1034E00003B0F0BD0120FBE70220F9E70120F7E778
:1034F0000004014010B5044603681A6812F0020F78
:1035000003D05B6813F0020F06D1074B4FF4003273
:103510005A610123637410BDFEF728F923686FF028
:1035200002025A60F1E700BF00040140C0B138B5A3
:1035300005460268536823F008035360FEF720FE37
:1035400004462B685B6813F0080F07D1FEF718FEDE
:10355000001BB0F57A7FF4D9032000E0002038BDCD
:1035600001207047002857D010B50446437C4BB16A
:10357000022363742046FFF7D9FF38B10423637434
:10358000012010BD0374FEF797F9F1E72046FFF71D
:103590008CFD60BB2268536823F007035360A36867
:1035A00023B11E4A136B23F0010313631B4AD36A32
:1035B00023F46073A1680B43D3626268B2F1FF3FEA
:1035C00019D021688B6823F00F0343EA12438B6004
:1035D0002168CB681B0C1B0492B21343CB602046BE
:1035E000FFF77BFD88B1042363740120C9E704233E
:1035F00063740120C5E70120FFF7A6F908B1421E58
:10360000DFE7042363740120BBE70023E373012396
:103610006373A3736374B4E701207047006C0040C8
:1036200030B4036A056A25F001050562846924F057
:10363000F00444EA021423F00A030B43846103629A
:1036400030BC704730B4056A25F010050562846906
:10365000036A24F4704444EA023423F0A00343EAEA
:1036600001138461036230BC7047836823F07003E8
:103670000B4343F00703836070470268D36843F04D
:103680000103D3600268936803F00703062B03D09D
:10369000136843F001031360002070470268D36889
:1036A00023F00103D3600368196A41F21112114239
:1036B00008D1196A40F24442114203D11A6822F03B
:1036C00001021A60002070477047704770477047CA
:1036D00010B5044603681A6912F0020F11D0DA68B7
:1036E00012F0020F0DD06FF002021A61012303776E
:1036F00003689B6913F0030F70D0FFF7E6FF002308
:10370000237723681A6912F0040F12D0DA6812F0D6
:10371000040F0ED06FF004021A610223237723688E
:103720009B6913F4407F5FD02046FFF7CEFF002354
:10373000237723681A6912F0080F12D0DA6812F0A2
:10374000080F0ED06FF008021A6104232377236854
:10375000DB6913F0030F4ED02046FFF7B6FF0023BE
:10376000237723681A6912F0100F12D0DA6812F06A
:10377000100F0ED06FF010021A6108232377236810
:10378000DB6913F4407F3DD02046FFF79EFF002306
:10379000237723681A6912F0010F03D0DA6812F058
:1037A000010F36D123681A6912F0800F03D0DA684E
:1037B00012F0800F34D123681A6912F0400F03D041
:1037C000DA6812F0400F32D123681A6912F0200F24
:1037D00003D0DA6812F0200F30D110BDFFF774FF6C
:1037E0002046FFF773FF8AE72046FFF76DFF20466C
:1037F000FFF76CFF9BE72046FFF766FF2046FFF7C9
:1038000065FFACE72046FFF75FFF2046FFF75EFF4E
:10381000BDE76FF001021A612046FDF741FFC1E7E5
:103820006FF080021A61204600F081F9C3E76FF063
:1038300040021A612046FFF74AFFC5E76FF02002F9
:103840001A61204600F072F9C7E7000003681B4ABE
:1038500090420AD0B0F1804F07D0A2F59432904246
:1038600003D002F58062904203D123F070034A68CE
:103870001343124A90420AD0B0F1804F07D0A2F50C
:103880009432904203D002F58062904203D123F437
:103890004073CA68134323F080034A6913430360EB
:1038A0008B68C3620B688362044B984202D0012389
:1038B000436170470B690363F9E700BF002C0140C7
:1038C000B0B110B5044690F83D3063B1022384F8DE
:1038D0003D30214651F8040BFFF7B8FF012384F86F
:1038E0003D30002010BD80F83C30FEF743F8EDE796
:1038F00001207047002849D0F8B50C46054690F8DD
:103900003D30002B3DD0022385F83D302A68936876
:1039100023F4804323F007039360294651F8040BF6
:10392000FFF794FF29688A688E690F6A2068104340
:1039300026F4407626F00306A268A36942EA032330
:10394000334323F47C4323F0FC03E668E26946EA50
:1039500002261E43226A1303226943EA02133343F9
:1039600027F022076268646942EA04123A438860D9
:1039700029688B612B681A62012385F83D3000208D
:10398000F8BD80F83C30FDF7BFFFBCE70120704771
:1039900010B4846824F47F4442EA03220A43224399
:1039A000826010BC704790F83C30012B66D010B597
:1039B0000446012380F83C30022380F83D30026841
:1039C000936823F47F4323F0770393600B68602BA5
:1039D00040D022D8402B47D00BD9502B0ED1CA68EB
:1039E00049680068FFF71CFE50212068FFF73DFE84
:1039F00004E0202B0CD008D9302B09D0012384F807
:103A00003D30002084F83C0010BD0BB1102BF5D1E7
:103A100019462068FFF729FEF0E7702B0ED0B3F5AA
:103A2000005FEBD1CB684A6889680068FFF7B0FF98
:103A30002268936843F480439360DFE7CB684A6869
:103A400089680068FFF7A4FF2268936843F0770352
:103A50009360D3E7CA6849680068FFF7F3FD602107
:103A60002068FFF702FEC9E7CA6849680068FFF7E7
:103A7000D7FD40212068FFF7F8FDBFE7022070471F
:103A800010B401F01F01012303FA01F4036A23EAD1
:103A900004030362036A02FA01F10B43036210BCE0
:103AA000704710B5044661B1042916D001220021E7
:103AB0000068FFF7E5FF012204212068FFF7E0FF1F
:103AC00004E0012200210068FFF7DAFF2268136892
:103AD00043F001031360002010BD0122042100689F
:103AE000FFF7CEFFF2E790F83C30012B1CD070B40A
:103AF000012680F83C60022380F83D30026855685A
:103B0000936825F070050C682C4323F080054B6802
:103B10002B4354600268936080F83D60002380F876
:103B20003C30184670BC70470220704770477047A1
:103B30000268D36823F49073D3600268536923F05A
:103B400001035361202380F83A30704790F83930F0
:103B5000DBB2212B01D0022070478368B3F5805F70
:103B600017D0036A5A1C02621A7803685A60C38C21
:103B70009BB2013B9BB2C3844BB90268D36823F06C
:103B80008003D3600268D36843F04003D360002011
:103B90007047036A1B880268C3F308035360036914
:103BA0001BB9036A02330362E1E7036A013303626C
:103BB000DDE7000038B504460268136923F440537A
:103BC000C1680B43136183680269134342691A4356
:103BD0000168CB6823F4B05323F00C031343CB608C
:103BE0000268536923F4407381690B43536102688F
:103BF000214B9A421FD0FEF7FDFD00EB800000EB49
:103C0000800063689B00B0FBF3F01C4DA5FB003205
:103C10005109642303FB11031B013233A5FB03236A
:103C20005B0903F0F00202EB011203F00F032168BD
:103C300013448B6038BDFEF7EDFD00EB800000EB18
:103C4000800063689B00B0FBF3F00C4DA5FB0032D5
:103C50005109642303FB11031B013233A5FB03232A
:103C60005B0903F0F00202EB011203F00F0321687D
:103C700013448B60DEE700BF003801401F85EB5125
:103C80002DE9F84305460F4616469946DDF8208093
:103C90002C68246837EA04030CBF01240024B442D2
:103CA0001FD1B8F1FF3FF3D0B8F1000F05D0FEF7F8
:103CB00067FAA0EB09004045EAD92A68D36823F4E3
:103CC000D073D3602A68536923F001035361202322
:103CD00085F8393085F83A30002385F838300320EC
:103CE00000E00020BDE8F88358B310B5044690F812
:103CF00039300BB3242384F839302268D36823F495
:103D00000053D3602046FFF755FF2268136923F460
:103D1000904313612268536923F02A035361226898
:103D2000D36843F40053D3600020E063202384F879
:103D3000393084F83A3010BD80F83830FDF752FE43
:103D4000D8E7012070472DE9F04182B01E4690F877
:103D50003930DBB2202B58D104460D46904600295D
:103D600057D0002A57D090F83830012B55D0012376
:103D700080F838300023C363212380F83930FEF700
:103D8000FFF90746A4F82480A4F8268017E00096DF
:103D90003B46002280212046FFF772FF00283ED1DB
:103DA0002B882268C3F30803536023690BB90235DB
:103DB00005E0013503E015F8012B23685A60E38C18
:103DC0009BB29BB1E28C92B2013A92B2E284A368B8
:103DD000B3F5805FDBD000963B4600228021204671
:103DE000FFF74EFF0028E6D003200FE000963B4689
:103DF000002240212046FFF743FF90B9202384F89A
:103E00003930002384F8383000E0022002B0BDE8E9
:103E1000F0810120FAE70120F8E70220F6E703200D
:103E2000F4E70320F2E790F83A30DBB2202B20D100
:103E300009B312B390F83830012B20D0816282850B
:103E4000C2850023C363222280F83A2080F83830EC
:103E50000168CA6842F48072CA6001684A6942F027
:103E600001024A610168CA6842F02002CA6018462D
:103E700070470220704701207047012070470220E0
:103E8000704710B504460268D36823F49073D3607A
:103E90000268536923F00103536103685A6912F001
:103EA000400F0BD05A6922F040025A61436B2BB18C
:103EB00000225A63406BFEF7E5FE28B90020E0853A
:103EC000202384F83A3010BD606BFEF749FF2028AC
:103ED000F4D11023E3630320F5E7704708B50168C8
:103EE000CA6822F04002CA60202280F83920FFF719
:103EF000F4FF002008BD704708B590F83A30DBB2F7
:103F0000222B46D18368B3F5805F0FD003690BBBCA
:103F100003685A68836A591C81621A70C38D9BB208
:103F2000013B9BB2C385F3B1002008BD826A0369DF
:103F300043B903685B68C3F308031380836A0233E1
:103F40008362EBE703685B68DBB21380836A01334B
:103F50008362E3E703685B68826A511C816203F055
:103F60007F031370DAE70268D36823F02003D3607D
:103F70000268D36823F48073D3600268536923F026
:103F800001035361202380F83A30FFF7B4FF00208B
:103F9000CBE70220C9E7704710B5044602681368F2
:103FA000D168526913F00F0005D113F0200F02D031
:103FB00011F0200F13D128B112F0010213D111F426
:103FC000907F10D113F0800F02D011F0800F69D1D3
:103FD00013F0400F02D011F0400F67D110BD204602
:103FE000FFF78AFFFAE713F0010F06D011F4807F84
:103FF00003D0E06B40F00100E06313F0040F04D045
:104000001AB1E06B40F00200E06313F0020F04D03D
:104010001AB1E06B40F00400E06313F0080F04D025
:104020001AB1E26B42F00802E263E26B002AD5D0DB
:1040300013F0200F02D011F0200F21D123685B690B
:1040400003F04003E26B12F0080F00D123B32046C7
:10405000FFF76EFD23685A6912F0400F18D05A69B5
:1040600022F040025A61636B73B1124A5A63606B6B
:10407000FEF72AFE0028B1D0606B436B9847ADE78E
:104080002046FFF739FFD9E72046FFF784FFA5E771
:104090002046FFF780FFA1E72046FFF77CFF0023C3
:1040A000E3639BE72046FFF751FD97E72046FFF7C4
:1040B00015FF93E7B940000808B5406A0023C3859F
:1040C000C384FFF768FF08BD7047000010B50446C1
:1040D0000268D36823F49073D3600268536923F0B5
:1040E0000103536103685A6912F0400F17D05A69EF
:1040F00022F040025A61436B4BB10D4A5A63406B48
:10410000FEF7E2FD90B1606B436B98470EE0002331
:10411000C385202380F83A30FFF7D6FF06E000235E
:10412000C385202380F83A30FFF7CEFF002010BD72
:104130003541000808B5406A0023C385202380F874
:104140003A30FFF7C1FF08BD0F4B1A6842F0010279
:104150001A6059680D4A0A405A601A6822F084723F
:1041600022F480321A601A6822F480221A605A6897
:1041700022F4FE025A604FF41F029A60044B4FF083
:1041800000629A60704700BF001002400000FFF814
:1041900000ED00E030B585B004461E4D0022402100
:1041A0002846FEF75BFD0520FDF7F0FF01224021C8
:1041B0002846FEF753FD01214FF4FA7000F006FC8B
:1041C00005464FF4FA7201462046FFF72CFE4FF4E5
:1041D000FA70FDF7DBFF2046FFF778FF284600F076
:1041E00029FC0021009101910291CDF80B100F23C1
:1041F0006A46204600F012F807496846FBF788FF38
:1042000020B13120FCF752FF05B030BD3120FCF762
:104210001DFFF9E70008014030850008F8B50646A3
:104220000F4614461A462146FFF7FDFDFDF7A8FF8D
:1042300005461749204601F0B6F9C8B96420FDF7D4
:10424000A5FFFDF79DFF401BB0F57A5FF1D9362041
:10425000FCF7FCFE0F4B07CB20606160A26030468C
:10426000FFF734FF012F12D13046FFF793FF0EE026
:104270003046FFF72BFF2046FBF754FFC0B2421E2B
:104280000023A354023823543620FCF70FFFF8BD57
:1042900044850008388500082DE9F84306460F4696
:1042A000154699460846FBF73DFF5FFA80F8002463
:1042B000012C1BD84FF47A70FDF768FF4FF6FF739F
:1042C000424639463046FFF73EFD4B462A4601211D
:1042D0003046FFF7A3FF06492846FBF719FF28B928
:1042E000044B1B882B800134E4B2E1E7BDE8F8837E
:1042F000388500087C84000800B585B03423ADF80B
:104300000C30002300930193ADF808300A236A466D
:1043100003A9FFF7C1FF07496846FBF7F9FE28B973
:104320003520FCF7C3FE05B05DF804FB3520FCF733
:104330008DFEF8E74885000870B586B00D46144636
:104340003123ADF814300023019302930393CDF889
:104350000F300F2301AA05A9FFF79EFF154901A8F9
:10436000FBF7D6FE20B1144901A8FBF7D1FE20B916
:104370003220FCF76BFE06B070BD3220FCF796FED3
:104380000E4E314601A801F047FF00F01BFB2070E4
:104390003146002001F040FF00F014FB6070002265
:1043A000A27021462846FEF7DBFE0028E3D0FDF789
:1043B000DEF9E0E7748400087C8400084C8500087E
:1043C000F0B585B007460D4614461C4E002220214C
:1043D0003046FEF743FC0520FDF7D8FE01222021E0
:1043E0003046FEF73BFC0023009301930293CDF887
:1043F0000B300F236A4601212046FFF70FFF1049BB
:104400006846FBF785FE08B905B0F0BD0F236A4684
:1044100001212046FFF702FF0A496846FBF778FEB4
:1044200040B13120FCF742FE2A4639462046FFF7CC
:1044300083FFE9E73120FCF709FEE5E7000C0140C6
:10444000388500083085000800B585B000F0F0031D
:104450000001C0B243F00C028DF80C2043F00803B9
:104460008DF80D3040F00C038DF80E3040F0080050
:104470008DF80F0064230093042303AA7E210348D0
:10448000FDF77EFD05B05DF804FB00BF4003002092
:1044900000B585B000F0F0030001C0B243F00D029A
:1044A0008DF80C2043F009038DF80D3040F00D031A
:1044B0008DF80E3040F009008DF80F006423009352
:1044C000042303AA7E210348FDF75AFD05B05DF8D9
:1044D00004FB00BF4003002010B58020FFF7B4FFAD
:1044E000002403E02020FFF7D3FF0134452CF9DD41
:1044F00010BD08B528B1012806D0C8B2FFF7A4FF47
:1045000008BD41F08001F8E741F0C001F5E708B5CA
:104510003220FDF73BFE3020FFF796FF0520FDF728
:1045200035FE3020FFF790FF0120FDF72FFE3020F1
:10453000FFF78AFF0A20FDF729FE2020FFF784FFFE
:104540000A20FDF723FE2820FFF77EFF0120FDF75C
:104550001DFE0820FFF778FF0120FDF717FE012060
:10456000FFF772FF0120FDF711FE0120FDF70EFE9F
:104570000620FFF769FF0120FDF708FE0C20FFF77A
:1045800063FF6420FDF702FE08BD10B504462078E5
:1045900018B10134FFF77CFFF9E710BD08B518200A
:1045A000FFF752FF08BD08B51C20FFF74DFF08BDFF
:1045B00000B585B00023039364230093042303AA6A
:1045C0007E210348FDF7DCFC05B05DF804FB00BF6D
:1045D0004003002008B500224FF480710148FEF727
:1045E0003DFB08BD00080140084AD178137943EA31
:1045F0000123074A1380022800D07047034A5179EB
:10460000937943EA0123024A5380F6E7D404002059
:10461000B004002070B504460E462B4B00221A60F1
:104620005A609A60FDF7ACFD0546E38D9BB29BB1E5
:104630006420FDF7ABFDFDF7A3FD401BB0F57A7FCD
:10464000F3D93720FCF702FD1F4B204A1A602046A1
:10465000FFF717FC1C4870BD3720FCF727FD1C4BEB
:1046600000221A703046FFF7BFFF022E16D0194BFA
:104670001A881949144800F05FFF134B1B78302B40
:1046800016D01148FBF74EFDC3B2012BE2D9421EF2
:104690000D4B995C19542E219954DBE70D4B1A8868
:1046A0005B8803EB02420C49074800F045FFE4E752
:1046B0000548FBF737FD02460228E2D90248411CB3
:1046C00000F0C0F9DDE700BFA4020020302E310069
:1046D00094000020B00400205085000810B400248D
:1046E0004FF6FF730FE00132D2B2082A09D803F067
:1046F00001015B080029F6D083F4204383F0010315
:10470000F1E70134E4B2844204D2054A125D534019
:104710000122EAE71A0242EA132398B210BC70475A
:10472000D4040020F8B504460D46184F0620387012
:10473000FFF7D4FF164E030AB371F07108233B70E4
:1047400001224FF480711348FEF788FA4FF6FF7389
:104750003A7831462046FFF7F6FA94F83930DBB262
:10476000202BFAD100224FF480710A48FEF776FA26
:10477000022D05D0072206492046FFF754FBF8BD5D
:10478000092203492046FFF74EFBF8E7940000207A
:10479000D40400200008014038B50546094B012427
:1047A0001C7003245C700C0A9C70D970110A19717A
:1047B000D4B25C712146FFF7B5FF21462846FFF7CA
:1047C00029FF38BDD404002000B583B00023009336
:1047D00001930B78162B11D0172B12D0022B10D966
:1047E000032B1ED04A78132A1FD88DF800301423CB
:1047F0008DF8013000238DF802300AE04A781E2A35
:10480000EAD904238DF8003000238DF801308DF8AB
:10481000023000226946FEF7F5FDE0B903B05DF80D
:1048200004FB4A783B2ADDD8EBE7143AD2B2132ACC
:1048300008D88DF8003028238DF8013000238DF83A
:104840000230E6E701338DF8003000238DF80130A7
:104850008DF80230DDE7FCF78AFFDFE72DE9F04352
:1048600085B006460C4617469846DDF83C90FCF7A6
:10487000D9FA002588F800500C9B1D700D9B1D7007
:10488000FDF7A0FC1C4B93E803000190ADF8081065
:10489000090C8DF80A10ADF80B508DF80D504FF63D
:1048A000FF730F2201A94846FFF74DFAFCF7FEFA05
:1048B000FCF714FB2A4621463046FEF7B3FC3A4685
:1048C00021463046FFF77CFD637822780B4901A82A
:1048D00000F032FE4FF6FF730A2201A94846FFF7A7
:1048E00032FAFCF75DFBFDF74BFC0E9B1860FCF702
:1048F00039FC05B0BDE8F0832C840008548500081D
:104900002DE9F04389B006460F4615469846DDF876
:104910004C90FFF759FF2846FFF7EEFC04AC144A11
:104920000FCA07C4238000238DF81E304FF6FF7393
:104930000F2204A94846FFF706FAFFF7CDFDFFF75F
:1049400037FEFDF737FC01210846FEF791FACDF856
:104950000C90129B0293119B0193109B0093434672
:104960002A4639463046FFF779FF09B0BDE8F083A3
:1049700038840008002103E00B4B5B58435004319E
:104980000A480B4B42189A42F6D30A4A02E0002327
:1049900042F8043B084B9A42F9D3FFF7D5FB00F0ED
:1049A0001DF8FCF7E7FC7047208800080000002095
:1049B0006C0200206C02002024050020FEE700218C
:1049C00001F01EBC0A22002101F0F2BC024B0A4693
:1049D0000146186800F058B89800002070B500260D
:1049E0000C4D0D4C641BA410A64209D103F00CFD24
:1049F00000260A4D0A4C641BA410A64205D170BDC6
:104A000055F8043B98470136EEE755F8043B9847C4
:104A10000136F2E71888000818880008188800088E
:104A20001C880008024B0146186800F087B800BFD8
:104A300098000020024B0146186800F033B800BF10
:104A400098000020884210B501EB020402D984428C
:104A5000234607D8431EA14208D011F8012B03F8C2
:104A6000012FF8E7014602448A4200D110BD13F835
:104A7000014D02F8014DF7E703460244934200D18D
:104A8000704703F8011BF9E738B502FB01F5294629
:104A900000F054F8044618B12A460021FFF7ECFF55
:104AA000204638BD38B50546002943D051F8043CAE
:104AB0000C1F002BB8BFE41802F06AFE1E4A1368F0
:104AC000104633B9636014602846BDE8384002F0F0
:104AD00065BEA3420AD921686218934201BF1A68D1
:104AE0005B685218226063600460EDE71A465B68F9
:104AF0000BB1A342FAD911685018A0420BD120681B
:104B00000144501883421160DED118685B6801448B
:104B100011605360D8E702D90C232B60D4E72068DA
:104B200021188B4201BF19685B6809182160636016
:104B30005460C9E738BD00BFB0020020F8B5CD1CF5
:104B400025F0030508350C2D38BF0C25002D064631
:104B500001DBA94203D90C2333600020F8BD02F029
:104B600017FE21490A6814469CB9204F3B6823B9B7
:104B70002146304600F09CFC38602946304600F063
:104B800097FC431C23D10C233046336002F006FE11
:104B9000E3E723685B1B17D40B2B03D923601C446A
:104BA000256004E06368A2420CBF0B60536030468E
:104BB00002F0F4FD04F10B00231D20F00700C21ADF
:104BC000CCD01B1AA350C9E722466468CCE7C41CAA
:104BD00024F00304A042E3D0211A304600F068FC20
:104BE0000130DDD1CFE700BFB0020020B4020020C9
:104BF000002B2DE9F0471F46BBBF03F100431F46C2
:104C000000232D2388B01446129A109D1370149B14
:104C1000DDF84CA023F02008B8F1460F05D0B8F11C
:104C2000450F00D10135022300E0032307AA0492B7
:104C300006AACDE902A2CDE9003522463B4601F0A5
:104C40004FFCB8F1470F064602D1119BDB0722D576
:104C5000B8F1460F06EB050910D13378302B0AD195
:104C60000022002320463946FBF788FE18B9C5F11B
:104C70000105CAF80050DAF80030994400220023F8
:104C800020463946FBF77AFE08B1CDF81C90302259
:104C9000079B4B4507D33046079B159A9B1B136018
:104CA00008B0BDE8F087591C07911A70F0E7034679
:104CB000F7B5002903F8022BB6BF2D222B2249425B
:104CC000092942702BDD0DF10704A4460A2791FB48
:104CD000F7F60A46A64607FB1615632A05F13005C6
:104CE000314604F1FF340EF8015CF0DC3031AEF1F6
:104CF000020504F8011C2946441C61450AD30DF144
:104D00000902A2EB0E02654588BF00221344181A5F
:104D100003B0F0BD11F8012B04F8012FEDE73023AB
:104D200030318370C170031DF1E700002DE9F04FB1
:104D300091B00C46DDF8688016461F46054602F025
:104D4000F5FC036818460993FBF7ECF900230E9372
:104D5000D8F800300A90073323F0070303F1080264
:104D600094F81890D4F800B0C8F80020D3E90023D4
:104D7000C4E91223D4E9128A2AF000430B934FF0BE
:104D8000FF3240469C4B0B99FBF72AFE70BB4FF05D
:104D9000FF324046984B0B99FBF704FE30BB0022D4
:104DA000002340465146FBF7F3FD10B12D2384F854
:104DB0004330924B9248B9F1470F94BF98468046D2
:104DC00003234FF0000A23612BF0040323603346D2
:104DD0002146284600970FAA00F0D4F9013040F090
:104DE00090804FF0FF3011B0BDE8F08F424653463F
:104DF00040465146FBF7F4FD48B1BAF1000FB8BF89
:104E00002D238048B8BF84F843307F4BD3E76368D5
:104E100009F0DF015A1C42D106236360002206928A
:104E20000EAACDE904920DAA4BF4806303920DF112
:104E30003302CDE90132236063684246009328467D
:104E400053460B91FFF7D4FE0B99804647290D99E5
:104E500008D1C81C02DB6368994240DDA9F1020950
:104E60005FFA89F9B9F1650F1FD84A46013904F193
:104E700050000D91FFF71BFF0E9A82461318012A6E
:104E8000236102DC2268D20701D5013323619DF83A
:104E90003330002B9BD02D2384F8433097E74729EC
:104EA000BCD1002BBAD10123B7E7B9F1660F18D1F5
:104EB000002963680BDD216113B92268D00702D590
:104EC00001330B4423614FF0000AA165DFE713B9FA
:104ED0002268D20701D50233F4E70123F2E74FF04D
:104EE00067090E9B994205DB23682161D807EAD543
:104EF0004B1CE7E70029CCBF0122C1F10202134499
:104F0000E0E723685A0507D423694246314628461C
:104F1000B84701302BD164E7B9F1650F40F2DD806D
:104F2000D4E9120100220023FBF728FD002833D02A
:104F3000012331462846354AB84701303FF451AF86
:104F4000DDE90D239A4202DB2368D8070FD5DDE99E
:104F5000092331462846B84701303FF442AF4FF0AD
:104F6000000804F11A090E9B013B434509DC236844
:104F70009B0700F10281E0680F9B9842B8BF18467A
:104F800031E701234A4631462846B84701303FF40D
:104F900028AF08F10108E6E70D9B002B38DC012360
:104FA00031462846194AB84701303FF41AAFDDE9C7
:104FB0000D23134302D12368D907D8D5DDE909238E
:104FC00031462846B84701303FF40BAF4FF0000997
:104FD00004F11A0A0D9B5B424B4501DC0E9B94E7E2
:104FE0000123524631462846B84701303FF4F9AE16
:104FF00009F10109EEE700BFFFFFEF7F5A850008C6
:105000005E85000866850008628500086A850008DC
:105010000E9AA36D9A42A8BF1A46002A914637DC21
:105020004FF0000B29EAE97904F11A02D4F858A0EC
:10503000AAEB09035B4533DCDDE90D239A423BDB38
:105040002368DA0738D40E9A0D99A2EB0A03A2EB73
:1050500001099945A8BF9946B9F1000F34DC4FF01A
:10506000000829EAE97904F11A0ADDE90D239B1AFF
:10507000A3EB090343457FF77AAF0123524631463C
:105080002846B84701303FF4ACAE08F10108ECE720
:105090001346314642462846B8470130C0D1A0E603
:1050A0000123314628460B92B84701303FF499AEB0
:1050B0000B9A0BF1010BB9E73146DDE909232846CC
:1050C000B8470130BFD18CE64B463146284608EB45
:1050D0000A02B8470130C2D183E60E9A012A01DCE8
:1050E000DB0737D50123424631462846B847013011
:1050F0003FF477AEDDE9092331462846B847013051
:105100003FF46FAED4E9120100220023FBF736FC16
:10511000D8B90E9B08F10102013B31462846B84739
:1051200001300ED15DE601234A4631462846B84794
:1051300001303FF456AE08F101080E9B013B434598
:10514000F1DC534604F15002E0E64FF0000804F1B0
:105150001A09F2E701234246DFE701234A463146B6
:105160002846B84701303FF43CAE08F10108E36837
:105170000F995B1A4345F0DCFDE64FF0000804F19F
:105180001909F4E72DE9F047164699468A680B6934
:1051900007469342B8BF1346336091F843200C464C
:1051A000DDF820800AB1013333602368990642BFDD
:1051B000336802333360256815F0060506D104F123
:1051C000190AE36832689B1AAB4228DC94F8432042
:1051D000131E226818BF012392062DD44946384673
:1051E00004F14302C047013020D02368E56803F092
:1051F0000603042B18BF002532684FF00006A36891
:1052000008BFAD1A226908BF25EAE5759342C4BFFD
:105210009B1AED181A34B5421AD1002008E0012378
:10522000524649463846C047013003D14FF0FF305F
:10523000BDE8F0870135C4E73020E11881F843006C
:105240005A1C94F845102244023382F84310C5E7F3
:105250000123224649463846C0470130E6D0013690
:10526000D9E700002DE9FF470C46277E9146782FAD
:1052700080469A460C9904F1430207D8622F0AD857
:10528000002F00F0D980582F00F0A48004F14206CE
:1052900084F842703AE0A7F16303152BF6D801A019
:1052A00050F823F0FD520008115300088D520008F9
:1052B0008D5200088D5200088D52000811530008CD
:1052C0008D5200088D5200088D5200088D52000842
:1052D0001F54000841530008015400088D52000873
:1052E0008D520008415400088D52000841530008B7
:1052F0008D5200088D520008095400080B6804F113
:1053000042061A1D1B680A6084F842300123A4E09B
:10531000256808682E0600F104030AD505680B60AD
:10532000002D03DA2D236D4284F843300A235E48B2
:1053300019E015F0400F05680B6018BF2DB2EFE7BC
:105340000B682568181D0860280601D51D6802E055
:105350006906FBD51D886F2F0CBF08230A2352480E
:10536000002184F843106668002EA8BF2168A6605B
:10537000A4BF21F0040121600DB9002E4DD01646C6
:10538000B5FBF3F103FB1157C75D06F8017D2F460E
:10539000BB420D46F4D9082B0BD12368DF0708D593
:1053A000236961689942DEBF302306F8013C06F1AB
:1053B000FF36921B22614B4621464046CDF800A0A5
:1053C00003AAFFF7DFFE01304CD14FF0FF3004B0ED
:1053D000BDE8F087344884F845700E68236856F8B5
:1053E000045B1F060E6014D5D90744BF43F02003A9
:1053F00023601DB9236823F0200323601023AFE747
:10540000236843F0200323607823284884F845303C
:10541000E3E75E0648BFADB2E6E71646BBE70B68BA
:1054200026681D1D60690D6035061B6801D5186072
:1054300002E07106FBD51880002316462361BAE707
:105440000B681A1D0A601E6800213046626802F06F
:1054500083F908B1801B606063682361002384F8CE
:105460004330A8E73246494640462369D0470130D9
:10547000ABD023689B0713D4E068039B9842B8BF66
:105480001846A4E70123324649464046D04701303A
:105490009BD00135E36803995B1AAB42F2DCEBE782
:1054A000002504F11906F5E76C8500087D850008E4
:1054B00038B50023054D044608462B6002F05EFF18
:1054C000431C02D12B6803B1236038BD14050020B2
:1054D0000CB430B5174B0C1E1D689DB008DA8B2339
:1054E0004FF0FF302B601DB0BDE8304002B0704778
:1054F0004FF40273ADF814300CBF234604F1FF33B0
:10550000049307934FF6FF7302900690ADF81630A0
:10551000284621AB209A02A9019302F0D9FD431C31
:10552000BCBF8B232B60002CDDD00022029B1A70A5
:10553000D9E700BF980000200EB46FF0004100B51D
:105540009CB01DAB02900690079104910848094950
:1055500053F8042B0591006802A9019302F0B8FDED
:105560000022029B1A701CB05DF804EB03B0704778
:10557000980000200802FFFF024610B51478134679
:105580000132002CFAD1013B11F8012B03F8012F55
:10559000002AF9D110BD034611F8012B03F8012BA5
:1055A000002AF9D17047F0B50C7864B103461A7837
:1055B00018465E1C0AB9104605E0944208D10D4613
:1055C00015F8012F02B9F0BD13F8017F9742F7D00B
:1055D0003346ECE72DE9F0410F46904602F0E2FB3E
:1055E00004460D46B8F1000F11D0C7F30A53C3F1BA
:1055F0006B03002B0BDD00241B0503F17F5505F524
:10560000401522462B46FAF751FF04460D46204628
:105610002946BDE8F08100002DE9F04F9B460023AC
:10562000A1B01C93A14B82461F680E4638461792C4
:10563000FAF778FD4FF0000804464FF000091B967A
:105640001B9B1A782B2A4CD03AD80D2A33D8082A1B
:1056500033D8002A3DD000230C931B9D2B78302B90
:1056600040F0AF806B7803F0DF03582B6CD10C9BBC
:10567000504601931CAB00938D4ACDF808B01DAB8A
:105680001BA901F067FD10F00706044605D0062EA1
:1056900029D1002301351B950C93179B002B40F05B
:1056A00096850C9BD3B1424609F10043104619463A
:1056B00021B0BDE8F08F202ACDD101331B93BFE785
:1056C0002D2AC8D101220C925A1C1B925B78002B08
:1056D000C3D1179B1B96002B40F0778542464B4663
:1056E000E4E70022EFE71C9A3AB135211EA802F048
:1056F00050FC50461C9902F08BF8013E052E07D84D
:10570000DFE806F00E0B181D0E034FF00009C84627
:105710002107C2D549F00049BFE7DDE91E89F7E757
:105720001D9ADDE91E8302F2334223F4801343EA1B
:105730000259EDE74FF00008DFF87891E8E76FF0E5
:1057400000494FF0FF38E3E71B9B5A1C1B925B7824
:10575000302BF9D0002BA0D0012307931B9B0A22EA
:10576000089300239B46CDE905331B980578A5F1E6
:105770003003D9B2092926D92246394602F0AEFDB6
:10578000002832D000202B465C4602460490652B50
:1057900001D0452B13D11CB9079B034399D000249A
:1057A0001B9E731C1B9373782B2B78D02D2B7BD0D7
:1057B0000027A3F13001092940F282801B960025C1
:1057C0009EE00023C9E7BBF1080FD5BF06990599F4
:1057D00002FB013302FB013300F10100D4BF069349
:1057E00005930BF1010B1B90BFE71B9B1A191B9232
:1057F0001B5DBBF1000F36D05C460490A3F1300274
:10580000092A12D90122C2E71B9B01305A1C1B92A4
:105810005B78302BF8D0A3F13102082A00F2DC8447
:105820000490002004461B9A0892303B00F10102CC
:1058300013D0049905191144049122460A21AA4261
:1058400013D12218082A04F1010404441BDC0A22A3
:10585000069902FB0133069300221B9B1046591C3C
:105860001B915B78CAE75846D3E7082A04DC069FF9
:105870004F4306970132E2E7571C102FDEBF059F0A
:105880004F430597F6E7102CDFBF0A22059902FB6C
:1058900001330593E0E70023012204937CE700270E
:1058A000B31C1B93B37884E70127F9E7F08600085F
:1058B000908500080000F07F1B9B591C1B915B78B2
:1058C000302BF9D0A3F1310108293FF678AF4FF022
:1058D0000A0EA3F1300C1B9B09931B9B591C1B91B7
:1058E0005B78A3F13005092D35D9099D491B08299D
:1058F00044F61F6502DC6545A8BF654607B16D42E9
:10590000002C4CD1079901437FF4C7AE002A7FF4E5
:10591000E0AE692B26D023DC492B23D04E2B7FF41D
:10592000D8AE9C491BA801F051FE00283FF4D1AE2F
:105930001B9B1B78282B2CD197491EAA1BA801F072
:1059400059FE052825D11F9BDDF8788043F0FF49DB
:1059500049F4E009A1E60EFB0C3CACF1300CBCE7CD
:105960006E2BDCE78D491BA801F030FE00283FF4C8
:10597000B0AE1B9B8A49013B1BA81B9301F026FE7E
:1059800010B91B9B01331B934FF00008DFF82092E6
:1059900083E6844802F09CFC804689467DE6049BB1
:1059A000BBF1000F08BFA346EB1A102C0698264641
:1059B0000793A8BF1026FAF7FFFC092C80468946FA
:1059C00013DD794B03EBC60353E91223FAF76EFD9F
:1059D000804605988946FAF7EFFC02460B4640469A
:1059E0004946FAF7ADFB804689460F2C36DC079B0B
:1059F000002B3FF452AE22DD162B09DC6A4C4246E6
:105A000004EBC3044B46D4E90001FAF74FFDC3E7AA
:105A1000079AC4F12503934220DB634DC4F10F04C0
:105A200005EBC4014246D1E900014B46FAF73EFDC1
:105A3000079B1C1B05EBC405D5E90023E5E7079B85
:105A400016330BDB049B584A5D1B02EBC505404631
:105A5000D5E900234946FAF753FE9DE7079BA61BAD
:105A60001E44002E71DD16F00F030AD04E49424647
:105A700001EBC301D1E900014B46FAF717FD80465F
:105A8000894636F00F0650D0B6F59A7F27DD4FF0E5
:105A9000000BCDF810B0CDF820B0CDF818B022230F
:105AA0004FF00008DFF80891CAF80030089B002B7F
:105AB0003FF4F3AD50461C9901F0AAFE50460699FA
:105AC00001F0A6FE5046049901F0A2FE5046089946
:105AD00001F09EFE5946504601F09AFEDDE5002396
